{
  "contractName": "Payment",
  "abi": [
    {
      "inputs": [],
      "stateMutability": "nonpayable",
      "type": "constructor"
    },
    {
      "inputs": [
        {
          "internalType": "uint256",
          "name": "",
          "type": "uint256"
        },
        {
          "internalType": "uint256",
          "name": "",
          "type": "uint256"
        }
      ],
      "name": "balances",
      "outputs": [
        {
          "internalType": "uint256",
          "name": "",
          "type": "uint256"
        }
      ],
      "stateMutability": "view",
      "type": "function",
      "constant": true
    },
    {
      "inputs": [
        {
          "internalType": "uint256",
          "name": "",
          "type": "uint256"
        }
      ],
      "name": "useridtoname",
      "outputs": [
        {
          "internalType": "string",
          "name": "",
          "type": "string"
        }
      ],
      "stateMutability": "view",
      "type": "function",
      "constant": true
    },
    {
      "inputs": [
        {
          "internalType": "uint256",
          "name": "",
          "type": "uint256"
        }
      ],
      "name": "users",
      "outputs": [
        {
          "internalType": "bool",
          "name": "",
          "type": "bool"
        }
      ],
      "stateMutability": "view",
      "type": "function",
      "constant": true
    },
    {
      "inputs": [
        {
          "internalType": "uint256",
          "name": "user_id",
          "type": "uint256"
        },
        {
          "internalType": "string",
          "name": "user_name",
          "type": "string"
        }
      ],
      "name": "registerUser",
      "outputs": [],
      "stateMutability": "nonpayable",
      "type": "function"
    },
    {
      "inputs": [
        {
          "internalType": "uint256",
          "name": "user_id_1",
          "type": "uint256"
        },
        {
          "internalType": "uint256",
          "name": "user_id_2",
          "type": "uint256"
        },
        {
          "internalType": "uint256",
          "name": "balance",
          "type": "uint256"
        }
      ],
      "name": "createAcc",
      "outputs": [],
      "stateMutability": "nonpayable",
      "type": "function"
    },
    {
      "inputs": [
        {
          "internalType": "uint256",
          "name": "user_id_1",
          "type": "uint256"
        },
        {
          "internalType": "uint256",
          "name": "user_id_2",
          "type": "uint256"
        }
      ],
      "name": "sendAmount",
      "outputs": [
        {
          "internalType": "bool",
          "name": "",
          "type": "bool"
        }
      ],
      "stateMutability": "nonpayable",
      "type": "function"
    },
    {
      "inputs": [
        {
          "internalType": "uint256",
          "name": "user_id_1",
          "type": "uint256"
        },
        {
          "internalType": "uint256",
          "name": "user_id_2",
          "type": "uint256"
        }
      ],
      "name": "closeAccount",
      "outputs": [],
      "stateMutability": "nonpayable",
      "type": "function"
    },
    {
      "inputs": [
        {
          "internalType": "uint256",
          "name": "user_id_1",
          "type": "uint256"
        },
        {
          "internalType": "uint256",
          "name": "user_id_2",
          "type": "uint256"
        }
      ],
      "name": "getBalance",
      "outputs": [
        {
          "internalType": "uint256",
          "name": "",
          "type": "uint256"
        }
      ],
      "stateMutability": "view",
      "type": "function",
      "constant": true
    }
  ],
  "bytecode": "0x608060405234801561001057600080fd5b50610f3e806100206000396000f3fe608060405234801561001057600080fd5b50600436106100885760003560e01c8063b54834811161005b578063b548348114610139578063b7134dfa14610155578063bd45d6eb14610185578063c5b8a929146101a157610088565b80631c57333e1461008d57806332026a51146100a9578063365b98b2146100d95780635db9506e14610109575b600080fd5b6100a760048036038101906100a29190610878565b6101d1565b005b6100c360048036038101906100be91906108d4565b610221565b6040516100d09190610923565b60405180910390f35b6100f360048036038101906100ee919061093e565b6102d7565b6040516101009190610986565b60405180910390f35b610123600480360381019061011e91906108d4565b6102f7565b6040516101309190610986565b60405180910390f35b610153600480360381019061014e91906109a1565b61046a565b005b61016f600480360381019061016a91906108d4565b610548565b60405161017c9190610923565b60405180910390f35b61019f600480360381019061019a91906108d4565b61056d565b005b6101bb60048036038101906101b6919061093e565b610648565b6040516101c89190610a73565b60405180910390f35b600160008084815260200190815260200160002060006101000a81548160ff0219169083151502179055508060016000848152602001908152602001600020908161021c9190610ca1565b505050565b600080600084815260200190815260200160002060009054906101000a900460ff16801561026b575060008083815260200190815260200160002060009054906101000a900460ff165b6102aa576040517f08c379a00000000000000000000000000000000000000000000000000000000081526004016102a190610de5565b60405180910390fd5b60026000848152602001908152602001600020600083815260200190815260200160002054905092915050565b60006020528060005260406000206000915054906101000a900460ff1681565b600080600084815260200190815260200160002060009054906101000a900460ff168015610341575060008083815260200190815260200160002060009054906101000a900460ff165b610380576040517f08c379a000000000000000000000000000000000000000000000000000000000815260040161037790610de5565b60405180910390fd5b60016002600085815260200190815260200160002060008481526020019081526020016000205410156103e8576040517f08c379a00000000000000000000000000000000000000000000000000000000081526004016103df90610e51565b60405180910390fd5b6001600260008581526020019081526020016000206000848152602001908152602001600020600082825461041d9190610ea0565b92505081905550600160026000848152602001908152602001600020600085815260200190815260200160002060008282546104599190610ed4565b925050819055506001905092915050565b60008084815260200190815260200160002060009054906101000a900460ff1680156104b2575060008083815260200190815260200160002060009054906101000a900460ff165b6104f1576040517f08c379a00000000000000000000000000000000000000000000000000000000081526004016104e890610de5565b60405180910390fd5b80600260008581526020019081526020016000206000848152602001908152602001600020819055508060026000848152602001908152602001600020600085815260200190815260200160002081905550505050565b6002602052816000526040600020602052806000526040600020600091509150505481565b60008083815260200190815260200160002060009054906101000a900460ff1680156105b5575060008082815260200190815260200160002060009054906101000a900460ff165b6105f4576040517f08c379a00000000000000000000000000000000000000000000000000000000081526004016105eb90610de5565b60405180910390fd5b60026000838152602001908152602001600020600082815260200190815260200160002060009055600260008281526020019081526020016000206000838152602001908152602001600020600090555050565b6001602052806000526040600020600091509050805461066790610ac4565b80601f016020809104026020016040519081016040528092919081815260200182805461069390610ac4565b80156106e05780601f106106b5576101008083540402835291602001916106e0565b820191906000526020600020905b8154815290600101906020018083116106c357829003601f168201915b505050505081565b6000604051905090565b600080fd5b600080fd5b6000819050919050565b61070f816106fc565b811461071a57600080fd5b50565b60008135905061072c81610706565b92915050565b600080fd5b600080fd5b6000601f19601f8301169050919050565b7f4e487b7100000000000000000000000000000000000000000000000000000000600052604160045260246000fd5b6107858261073c565b810181811067ffffffffffffffff821117156107a4576107a361074d565b5b80604052505050565b60006107b76106e8565b90506107c3828261077c565b919050565b600067ffffffffffffffff8211156107e3576107e261074d565b5b6107ec8261073c565b9050602081019050919050565b82818337600083830152505050565b600061081b610816846107c8565b6107ad565b90508281526020810184848401111561083757610836610737565b5b6108428482856107f9565b509392505050565b600082601f83011261085f5761085e610732565b5b813561086f848260208601610808565b91505092915050565b6000806040838503121561088f5761088e6106f2565b5b600061089d8582860161071d565b925050602083013567ffffffffffffffff8111156108be576108bd6106f7565b5b6108ca8582860161084a565b9150509250929050565b600080604083850312156108eb576108ea6106f2565b5b60006108f98582860161071d565b925050602061090a8582860161071d565b9150509250929050565b61091d816106fc565b82525050565b60006020820190506109386000830184610914565b92915050565b600060208284031215610954576109536106f2565b5b60006109628482850161071d565b91505092915050565b60008115159050919050565b6109808161096b565b82525050565b600060208201905061099b6000830184610977565b92915050565b6000806000606084860312156109ba576109b96106f2565b5b60006109c88682870161071d565b93505060206109d98682870161071d565b92505060406109ea8682870161071d565b9150509250925092565b600081519050919050565b600082825260208201905092915050565b60005b83811015610a2e578082015181840152602081019050610a13565b60008484015250505050565b6000610a45826109f4565b610a4f81856109ff565b9350610a5f818560208601610a10565b610a688161073c565b840191505092915050565b60006020820190508181036000830152610a8d8184610a3a565b905092915050565b7f4e487b7100000000000000000000000000000000000000000000000000000000600052602260045260246000fd5b60006002820490506001821680610adc57607f821691505b602082108103610aef57610aee610a95565b5b50919050565b60008190508160005260206000209050919050565b60006020601f8301049050919050565b600082821b905092915050565b600060088302610b577fffffffffffffffffffffffffffffffffffffffffffffffffffffffffffffffff82610b1a565b610b618683610b1a565b95508019841693508086168417925050509392505050565b6000819050919050565b6000610b9e610b99610b94846106fc565b610b79565b6106fc565b9050919050565b6000819050919050565b610bb883610b83565b610bcc610bc482610ba5565b848454610b27565b825550505050565b600090565b610be1610bd4565b610bec818484610baf565b505050565b5b81811015610c1057610c05600082610bd9565b600181019050610bf2565b5050565b601f821115610c5557610c2681610af5565b610c2f84610b0a565b81016020851015610c3e578190505b610c52610c4a85610b0a565b830182610bf1565b50505b505050565b600082821c905092915050565b6000610c7860001984600802610c5a565b1980831691505092915050565b6000610c918383610c67565b9150826002028217905092915050565b610caa826109f4565b67ffffffffffffffff811115610cc357610cc261074d565b5b610ccd8254610ac4565b610cd8828285610c14565b600060209050601f831160018114610d0b5760008415610cf9578287015190505b610d038582610c85565b865550610d6b565b601f198416610d1986610af5565b60005b82811015610d4157848901518255600182019150602085019450602081019050610d1c565b86831015610d5e5784890151610d5a601f891682610c67565b8355505b6001600288020188555050505b505050505050565b7f4f6e65206f72206d6f7265207573657273206e6f74207265676973746572656460008201527f2e00000000000000000000000000000000000000000000000000000000000000602082015250565b6000610dcf6021836109ff565b9150610dda82610d73565b604082019050919050565b60006020820190508181036000830152610dfe81610dc2565b9050919050565b7f496e73756666696369656e742062616c616e6365000000000000000000000000600082015250565b6000610e3b6014836109ff565b9150610e4682610e05565b602082019050919050565b60006020820190508181036000830152610e6a81610e2e565b9050919050565b7f4e487b7100000000000000000000000000000000000000000000000000000000600052601160045260246000fd5b6000610eab826106fc565b9150610eb6836106fc565b9250828203905081811115610ece57610ecd610e71565b5b92915050565b6000610edf826106fc565b9150610eea836106fc565b9250828201905080821115610f0257610f01610e71565b5b9291505056fea26469706673582212208d1dfeba4cd86f5539505926b0f306d2b883ab1c91d0af232ba6ee43de04ac3564736f6c63430008130033",
  "immutableReferences": {},
  "source": "// SPDX-License-Identifier: MIT\npragma solidity >=0.4.22 <0.9.0;\n\n\ncontract Payment {\n  mapping (uint => bool) public users;\n  mapping (uint => string) public useridtoname;\n  mapping (uint => mapping (uint => uint)) public balances;\n\nconstructor() public {\n  // constructor\n\n}\n\nfunction registerUser(uint user_id, string memory user_name) public {\n  // It will register the user and add it to the list of available users to transact.\n\n  users[user_id] = true;\n  useridtoname[user_id] = user_name;\n  \n}\n\nfunction createAcc(uint user_id_1, uint user_id_2, uint balance) public {\n  // Create a joint account between two users and keep a track of individual contribution to the joint account.\n\n  require(users[user_id_1] && users[user_id_2], \"One or more users not registered.\");\n  balances[user_id_1][user_id_2] = balance;\n  balances[user_id_2][user_id_1] = balance;\n}\n\nfunction sendAmount(uint user_id_1, uint user_id_2) public returns (bool){\n  // Transfer the amount (only whole number, no decimal) from one user\n  // to the other irrespective of having a joint account or not. If a user doesnt have sufficient balance to\n  // send the amount, it will reject the transaction and result in transaction failure.\n\n  // perform bfs to see if user_id_1 and user_id_2 are connected\n  // if yes, then transfer the amount\n  // else, reject the transaction\n\n  \n\n  require(users[user_id_1] && users[user_id_2], \"One or more users not registered.\");\n  require(balances[user_id_1][user_id_2] >= 1, \"Insufficient balance\");\n  balances[user_id_1][user_id_2] -= 1;\n  balances[user_id_2][user_id_1] += 1;\n  return true;\n}\n\nfunction closeAccount(uint user_id_1, uint user_id_2) public {\n  // Terminate the account between the two users passed as a parameter to the method call.\n\n  require(users[user_id_1] && users[user_id_2], \"One or more users not registered.\");\n  delete balances[user_id_1][user_id_2];\n  delete balances[user_id_2][user_id_1];\n}\nfunction getBalance(uint user_id_1, uint user_id_2) public view returns (uint){\n  // ReturnBthe balance of the joint account between the two users passed as a parameter to the method call.\n\n  require(users[user_id_1] && users[user_id_2], \"One or more users not registered.\");\n  return balances[user_id_1][user_id_2];\n}\n}",
  "sourcePath": "/mnt/c/Users/shuba/Desktop/Labs/CS765/Assignment-3/contracts/Payment.sol",
  "compiler": {
    "name": "solc",
    "version": "0.8.19+commit.7dd6d404.Emscripten.clang"
  },
  "schemaVersion": "3.4.13",
  "updatedAt": "2023-04-10T20:41:53.566Z",
  "networkType": "ethereum",
  "devdoc": {
    "kind": "dev",
    "methods": {},
    "version": 1
  },
  "userdoc": {
    "kind": "user",
    "methods": {},
    "version": 1
  }
}